:100000000C94D1040C9418050C9418050C947D06DE
:100010000C9418050C9418050C9418050C941805EC
:100020000C9418050C9418050C948E2A0C94602BD3
:100030000C9401260C9418050C9418050C941805C2
:100040000C9418050C9418050C9418050C941805BC
:100050000C9418050C9469260C9418050C9418053A
:100060000C9418050C9418050C9418050C9418059C
:100070000C9418050C9418050C9418050C9418058C
:100080000C9418050C9418050C9418050C9418057C
:100090000C946B050C9418050C9418050C94180519
:1000A0000C9418050C9418050C941805CB0FCD0F63
:1000B000D80FCF0FD10FD30FD50FD70FDA0FDC0F1B
:1000C000DE0FE90FE00FE20FE40FE60FE80FEB0F92
:1000D000701C701CA21CA21C041E041E041E041E04
:1000E000E21C041E851D851DF41D041E041EFD1D3D
:1000F000921D921D921D921D921D921D921D921D88
:10010000921D921D921D921D921D921D921D921D77
:10011000A11DAF1DB61DBD1DC71D891E891E9B1EBD
:100120009B1E921E9B1E9B1E9B1E891E891E971E38
:100130009B1E9B1E971ECD2BF42BEC2CF42BEC2C32
:10014000402C632CEC2CBA2CC92C07634236B79B8D
:10015000D8A71A39685618AEBAAB558C1D3CB7CC27
:100160005763BD6DEDFD753EF6177231BF0000009F
:10017000803F05A84CCDB2D44EB93836A9020C50F8
:10018000B9918688083CA6AAAA2ABE000000803F32
:100190000000000000003E5B4F5B3E003E6B4F6B7B
:1001A0003E001C3E7C3E1C00183C7E3C18001C5748
:1001B0007D571C001C5E7F5E1C0000183C18000070
:1001C000FFE7C3E7FF00001824180000FFE7DBE7A4
:1001D000FF0030483A060E00262979292600407F84
:1001E00005050700407F05253F005A3CE73C5A00C3
:1001F0007F3E1C1C0800081C1C3E7F0014227F222E
:1002000014005F5F005F5F0006097F017F000066EA
:1002100089956A0060606060600094A2FFA294000B
:1002200008047E04080010207E20100008082A1C04
:100230000800081C2A0808001E10101010000C1ED0
:100240000C1E0C0030383E383000060E3E0E060004
:1002500000000000000000005F0000000007000731
:100260000000147F147F1400242A7F2A1200231315
:100270000864620036495620500000080703000059
:10028000001C224100000041221C00002A1C7F1C8F
:100290002A0008083E0808000080703000000808A6
:1002A0000808080000006060000020100804020038
:1002B0003E5149453E0000427F4000007249494995
:1002C00046002141494D33001814127F1000274584
:1002D000454539003C4A494931004121110907008F
:1002E000364949493600464949291E000000140094
:1002F00000000040340000000008142241001414E3
:1003000014141400004122140800020159090600C7
:100310003E415D594E007C1211127C007F494949D3
:1003200036003E41414122007F4141413E007F492C
:10033000494941007F09090901003E4141517300CB
:100340007F0808087F0000417F4100002040413FB6
:1003500001007F08142241007F40404040007F029E
:100360001C027F007F0408107F003E4141413E0097
:100370007F09090906003E4151215E007F091929C4
:10038000460026494949320003017F0103003F40EE
:1003900040403F001F2040201F003F4038403F00AA
:1003A0006314081463000304780403006159494D81
:1003B0004300007F41414100020408102000004139
:1003C00041417F00040201020400404040404000DF
:1003D0000003070800002054547840007F2844445C
:1003E0003800384444442800384444287F003854B6
:1003F0005454180000087E0902001824241C7800B8
:100400007F080404780000447D4000002040403D07
:1004100000007F102844000000417F4000007C0461
:10042000780478007C080404780038444444380098
:100430007C1824241800182424187C007C08040448
:10044000080048545454240004043F4424003C4011
:1004500040207C001C2040201C003C4030403C00E0
:100460004428102844004C9090907C004464544CE4
:100470004400000836410000000077000000004101
:10048000360800000201020402003C2623263C003C
:10049000000000000000000000000000000000005C
:1004A000C0E0F0F8F81800C0F0FCFEFFFFFFFFFF0F
:1004B000FFFF7E00000000000000000080C0E0E0C0
:1004C000E0E0E0E0E0E0C0800000000080C0E0E0AC
:1004D000E0E0E0E0E0E0C080000000E0E0C0C0E07C
:1004E000E0E0E00000E0E0C0C0E0E0E0E0E0C0808C
:1004F0000000000080C0E0E0E0E0E0E0E0E0C0807C
:100500000000000000000000000000000000E0F01B
:10051000F0F0E0ECEEF7F37020007C7C7C7E007E57
:100520007E7E7F7F7F000080C0E07E5B4F5BFEC0F1
:100530000000C000DCD7DEDEDED7DC00C00000003B
:1005400000000000000000000000000000000000AB
:10055000000000000000000000F8FCFEFFE000FFCB
:10056000FFFFFFFFFF80FFFFFFFFFFFFFFFFFF1FFA
:100570000701000000000000000000FFFFFF8100F5
:10058000000000000081C3C3C30000FFFFFF810023
:10059000000000000081FFFFFF0000FFFFFF0100DF
:1005A0000000000000FFFFFF010000000001FFFF4E
:1005B000FF0000FFFFFF9D1C1C1C1C1C1C9DDFDF9F
:1005C000DF000000000000000000000000000F1F1E
:1005D0003F7F7F7F7F7F3F1E0C001F1F1F3F003F1D
:1005E0003F3F7F7F7F00307B7F7830202030787FD7
:1005F0003B0003000F7F0F0F0F7F0F000300000071
:1006000000000000000000000000000000000000EA
:10061000000000000000000000030F1F3F3F3F3FAD
:100620001F1F3F3F7F7F7F3F3F1F3F7F7F7F7F7C3D
:100630007878381C0F000000000000000103070755
:10064000070707070707030100000000010307076A
:100650000707070707070301000000070707000057
:100660000000000000070707000000000000070767
:100670000700000001030707070707070707030133
:10068000000000000000000000000000000000006A
:10069000000000000000000000000000000000005A
:1006A000000000000000000000000000000000004A
:1006B000000000000000000000000000000000003A
:1006C000000000000000000000000000000000002A
:1006D00029001E001F0020002100220000002B0026
:1006E00014001A000800150017000000E1000400C3
:1006F0001600070009000A000000E0001D001B00B2
:100700000600190005000000000000000000F15C78
:100710002C00E20000002A0027002600250024000B
:10072000230000003100130012000C0018001C0010
:100730000000340033000F000E000D000B0000001D
:10074000E5003800370036001000110000000000FE
:1007500000000000E4002C00280000003A003B00EC
:100760003C003D003E003F0000003500010001005C
:10077000010001000100000039000100010001003A
:100780000100010000000100010001000100010062
:1007900001000000000000000000F25C9168010010
:1007A00000004500440043004200410040000000BA
:1007B0004C002E002D0030002F0001000000010031
:1007C00001000100010052000100000001000100D1
:1007D00001004F0051005000000000000000000028
:1007E000010001000100000000047F3F1F6432147B
:1007F000643214783C1E1E140A056801F000B4002F
:1008000078005A000000000000010101010101010F
:1008100001010202020202020202020303030303B5
:100820000303030404040404040505050505060682
:1008300006060607070707080808080909090A0A3B
:100840000A0A0B0B0B0C0C0C0D0D0D0E0E0F0F0FDF
:100850001010111111121213131414151516161766
:1008600017181819191A1A1B1C1C1D1D1E1F1F20D2
:10087000202122222324252526272728292A2B2B1D
:100880002C2D2E2F2F303132333435363637383940
:100890003A3B3C3D3E3F4041424344464748494A3B
:1008A0004B4C4D4F50515253555657585A5B5C5E06
:1008B0005F606263646667696A6C6D6E70717374A1
:1008C0007678797B7C7E8081838486888A8B8D8F05
:1008D00091929496989A9B9D9FA1A3A5A7A9ABAD31
:1008E000AFB1B3B5B7B9BBBDBFC1C4C6C8CACCCF21
:1008F000D1D3D6D8DADCDFE1E4E6E8EBEDF0F2F5CF
:10090000F7FAFCFF0403300000000C034300720000
:100910006B00620064000000100366006F006F004F
:100920007300740061006E000000040309040902F2
:100930002200010100A0FA090400000103010100E6
:100940000921110100012240000705810308000A66
:100950001201100100000008EDFE603001000102EC
:10096000030105010906A101050719E029E71500A2
:100970002501950875018102950175088101050819
:1009800019012905950575019102950175039101DC
:100990000507190029FF150026FF00950675088137
:1009A00000C011241FBECFEFDAE0DEBFCDBF04B61A
:1009B00003FE27C08091270490912804A091290468
:1009C000B0912A048730904BA740B04BD1F41092DD
:1009D0002704109228041092290410922A0414BEAD
:1009E00084B7877F84BF0FB6F894A8958091600084
:1009F000886180936000109260000FBEE0E0F8E331
:100A0000099512E0A0E0B1E0E8E3F8E602C0059045
:100A10000D92A232B107D9F724E0A2E2B2E001C000
:100A20001D92A732B207E1F70E94C9270C941A342D
:100A30000C94000083E390E02091BC0027FD02C0ED
:100A40000197D1F708951092B9008CE08093B80017
:100A50000895CF93C82F84EA8093BC000E941A05A2
:100A60008091B900887F883039F08091B900887F03
:100A7000803111F081E012C0C093BB0084E8809304
:100A8000BC000E941A058091B900887F883129F046
:100A90008091B900887F803469F780E0CF91089514
:100AA00084E98093BC0083E390E02091BC0024FDA6
:100AB00002C00197D1F708958093BB0084E880932A
:100AC000BC000E941A059091B900987F81E098328D
:100AD00009F480E008951F920F920FB60F9211242F
:100AE0008F939F93EF93FF938091B900887F803815
:100AF00069F038F48823C9F18036C9F510922202D2
:100B000036C0883A09F1883BF9F031C08091220261
:100B1000811111C08091BB00809323028091230238
:100B2000803120F01092230280E001C081E091E04A
:100B3000909322021DC0E0912302F0E08091BB005F
:100B4000E35CFC4F808308C0E0912302F0E0E35CAB
:100B5000FC4F80818093BB008091230290E001963E
:100B60008F7099278093230202C01092BC0081E00D
:100B70009091BC008295880F880F807C9568892BA6
:100B80008093BC00FF91EF919F918F910F900FBECA
:100B90000F901F9018958EE14A9B02C08150E1F79B
:100BA0004A9BFECF08955A9880E28A95F1F75A9AA7
:100BB0000895FC012AE02A95F1F790E020E080E01A
:100BC00031E0261779F040E14A95F1F7880F4A9B0A
:100BD00002C08160932700C0000040E14A95F1F710
:100BE0002F5FEFCF20E12A95F1F729B100C0000077
:100BF00030E13A95F1F722FB222720F99227208154
:100C0000920F90830895EF92FF920F931F93CF93CB
:100C1000DF931F92CDB7DEB719828C017C01E60EFF
:100C2000F11C0E151F0559F00E94CB0568E0CE019E
:100C300001960E94D905F80181938F01F2CF81E0DE
:100C40009981911180E00F90DF91CF911F910F91C9
:100C5000FF90EF9008959093260280932502609371
:100C60002402529A5A9A089590932602809325025C
:100C70006093240252985A9AEA9AE9E6F0E0808159
:100C80008F7C80830895615091E001C0990F6A952F
:100C9000EAF720E031E0992361F0492F482319F069
:100CA0005A9A232701C05A9840E24A95F1F796953F
:100CB000F2CF222311F05A9A01C05A9880E28A9505
:100CC000F1F75A980895FF920F931F93CF93DF93F4
:100CD000EC018C01060F111DC017D10741F0F990EE
:100CE0000E94D30568E08F2D0E944306F5CFDF9167
:100CF000CF911F910F91FF9008951F920F920FB601
:100D00000F9211240F931F932F933F934F935F9351
:100D10006F937F938F939F93AF93BF93EF93FF93C3
:100D2000CF93DF931F92CDB7DEB719820E94CB0518
:100D300067E0CE0101960E94D905382F3695369589
:100D40003695932F96959570232F2570920F292F06
:100D50002370969596958770920F891348C0898164
:100D6000811145C080912402831708F440C080E1BE
:100D70008A95F1F75A9A529AA2E0AA95F1F700C023
:100D80000091250210912602B8E03B9F000D111D35
:100D900011245A98F8016581662321F08681978194
:100DA0000E9463060E94D305F0E1FA95F1F75A9884
:100DB00052985A9A80E18A95F1F7D80112966C916F
:100DC0001297662369F013968D919C9114970E9457
:100DD0000306D801ED91FC91811105C082E004C0A9
:100DE000D801ED91FC9188E080830E94CB050F90A3
:100DF000DF91CF91FF91EF91BF91AF919F918F9133
:100E00007F916F915F914F913F912F911F910F9122
:100E10000F900FBE0F901F9018950F931F93CF93B5
:100E2000DF932091240230E0281739070CF471C0B9
:100E30009C0193E0220F331F9A95E1F7C0912502A0
:100E4000D0912602C20FD31FF894529A5A9845E0C7
:100E50004A95F1F70000982F969595708570890F47
:100E6000982F937086958695890F8901082B0E948B
:100E7000D30584E08A95F1F700C067E0802F0E94D7
:100E8000430640E14A95F1F752985A9A4A9902C0AE
:100E900000C0FCCF87E090E04A9B0EC0019751F460
:100EA000529A5A9AE881F98181E08083789481E0AE
:100EB00090E031C000C0F0CF6D81662381F08E815B
:100EC0009F810E94030681110AC0529A5A9AE881B2
:100ED000F98182E08083789482E090E01CC00E94D7
:100EE000CB0580E28A95F1F75A98529A40E14A95EB
:100EF000F1F76A81662321F08B819C810E94630651
:100F00000E94D305E881F9811082789480E090E016
:100F100002C084E090E0DF91CF911F910F9108957E
:100F2000CF93C82F88E70E94290581110AC080E06D
:100F30000E945C05811105C08C2F0E945C05C1E0F8
:100F40008111C0E00E9450058C2FCF910895CF935E
:100F5000C62F0E949007882321F08C2FCF910C94EC
:100F6000900780E0CF910895CF93C62F0E949007FD
:100F7000882349F080E00E949007882321F08C2F7D
:100F8000CF910C94900780E0CF9108958EEA0C9455
:100F900090078FEA0C9490070F931F93CF93DF93E2
:100FA0008C010C5A1F4FD801ED91FC911197608371
:100FB0002D913C9111972F5F3F4F2D933C93281B10
:100FC000390B24353105B9F4EC01BC016B5E7F4F60
:100FD0004FE350E00E94B130CE01CF96F8019183EB
:100FE000808345E150E060E270E0DF91CF911F9196
:100FF0000F910C94C330DF91CF911F910F91089501
:101000001F93CF93DF93FC01EA5AFF4F21E0208327
:101010006A3099F4EC013297808191818C1B9D0B91
:1010200065E170E00E947D30182F153158F460E2C0
:10103000CE010E94CC071F5FF8CFDF91CF911F91A7
:101040000C94CC07DF91CF911F910895EF92FF92FE
:101050000F931F93CF93DF937C01EB01FB01019072
:101060000020E9F78F0101501109C017D10728F4BA
:101070006991C7010E940008F8CFDF91CF911F91BD
:101080000F91FF90EF900895CF92DF92EF92FF9231
:101090000F931F93CF93DF93CDB7DEB77C010DB7CE
:1010A0001EB7DB010D900020E9F7CD01861B970BE1
:1010B00001962DB73EB7281B390B0FB6F8943EBFEB
:1010C0000FBE2DBF2F5F3F4F69017F936F9328E7BE
:1010D00031E03F932F939F938F93DF92CF920E94A3
:1010E000D130B601C7010E9426088DB79EB7089679
:1010F0000FB6F8949EBF0FBE8DBF0FB6F8941EBFFB
:101100000FBE0DBFDF91CF911F910F91FF90EF9018
:10111000DF90CF900895CF93DF93EC0144E550E04A
:1011200060E270E00E94C330FE01EC5AFF4FD183B1
:10113000C083CA5ADF4F81E08883DF91CF91089541
:101140009F92AF92BF92CF92DF92EF92FF920F9356
:101150001F93CF93DF93EC010E94332690932802D4
:10116000809327020E94C90763E082E20E94B407CD
:10117000882309F43CC06DE781E20E94B40788230C
:10118000B1F188E70E942905811131C080E40E94F5
:101190005C0581112CC06E0184E0982E00E010E007
:1011A000F601E00FF11FA08086E0A89E50011124F7
:1011B000E12CF12CF501EE0DFF1DE057FE4F84915F
:1011C0000E945C058FEFE81AF80A86E0E816F10441
:1011D00089F70F5F1F4F0531110511F79A9485E1CB
:1011E000C80ED11C9110DACFCA5ADF4F1882DF9196
:1011F000CF911F910F91FF90EF90DF90CF90BF9014
:10120000AF909F900C9450058DE493E00C94A0084F
:10121000CF93DF93C82F0E9423058EEA0E94900788
:10122000811102C080E09BC060E885ED0E94A707A5
:101230008823C1F36FE188EA0E94A707882391F30E
:1012400060E083ED0E94A707882361F380E40E9499
:101250009007882339F364E18DE80E94A70788236B
:1012600009F360E080E20E94A7078823D9F2CC232B
:1012700039F080EA0E9490078823A1F280EC06C032
:1012800081EA0E949007882369F288EC0E94900707
:10129000882341F262E08AED0E94A707882311F2B9
:1012A0006FE881E80E94A707882309F4BBCF61EFAC
:1012B00089ED0E94A707882309F4B4CF60E48BED81
:1012C0000E94A707882309F4ADCF84EA0E94900703
:1012D000882309F4A7CF86EA0E949007882309F49F
:1012E000A1CF8EE20E949007882309F49BCF8FEA5A
:1012F0000E949007882309F495CF60E081E80E945E
:10130000A707882309F48ECF8DE493E00E948B0811
:1013100063E082E20E94B4078823E1F06FE781E294
:101320000E94B4078823B1F088E70E942905811143
:1013300011C080E40E945C0581110CC0D4E0C0E0C3
:1013400080E00E945C05CF5FC038D1F7D150B9F77B
:101350001092A3030E9450050E94040981E0DF91CE
:10136000CF9108950E943A0D8091A303811104C08A
:1013700080910001882321F00E940409109200014D
:1013800080912702909128020E943F2681369A4E32
:1013900010F00C94C607089581E080930001089531
:1013A000CF93DF93A3E8B1E048E851E061E070E05B
:1013B0008D91E82FE295EF70F0E021A18F70EB01A5
:1013C00002C0CC0FDD1F8A95E2F7CE019C2F9095CD
:1013D000922391A392A1892B82A34A175B0741F71D
:1013E000DF91CF9108950C94F90C809130038360C4
:1013F0008860809330030E94D009ACE7B1E041E0FF
:1014000050E08D91E82FE295EF70F0E021A18F7010
:10141000BA0102C0660F771F8A95E2F7CB01962FBB
:101420009095922391A392A1892B82A371E0A33876
:10143000B70739F7559A209A5D9A289AE3E3F2E0C4
:10144000A9E2B2E011921D9282E0ED33F807D1F7E4
:101450000E94770B80933D020C94120E9F92AF92E4
:10146000BF92CF92DF92EF92FF920F931F93CF9391
:10147000DF9380910201811103C0C5E0D0E002C07A
:10148000C0E0D0E0AE01475D5D4F7A0183E8C82E31
:1014900081E0D82E8A01AA24A394B12C25E0922EB3
:1014A000F8E8CF16F1E0DF0609F44AC0F6018191B1
:1014B0006F01E82FE295EF70F0E021A18F70A50198
:1014C00002C0440F551F8A95E2F7CA01922F982B4C
:1014D00091A392A18095892382A350EA5A95F1F7AE
:1014E000ECE7F1E020E040E050E03191A32FA2953D
:1014F000AF70B0E090968C9190E03F7002C09595EF
:1015000087953A95E2F780FD07C0C501042E01C01A
:10151000880F0A94EAF702C080E090E0282B4F5F22
:101520005F4F4730510509F7F8018081821719F0A4
:101530002083909201010E94D0090F5F1F4FB0CF0E
:10154000809101018823B1F08150809301018111C4
:1015500003C0CD5CDD4F07C08FE99FE00197F1F735
:1015600000C0000007C0F70191917F0199938F5F40
:101570008530C9F781E0DF91CF911F910F91FF90E6
:10158000EF90DF90CF90BF90AF909F900895CF9352
:10159000DF9320910201211103C0C0E0D0E002C01E
:1015A000C5E0D0E00E94A10B009721F0029781F4E2
:1015B00028980EC0289ADE01AD5CBD4F85E0E9E4B5
:1015C000F2E001900D928A95E1F780E090E002C090
:1015D00081E090E0DF91CF9108950E942E0A8091E2
:1015E0000201811103C0E5E0F0E002C0E0E0F0E0BC
:1015F000ED5CFD4F20E030E080E0D901A75BBD4FFE
:101600004C919191491381E09C932F5F3F4F25307E
:10161000310599F790914102890F80934102089515
:10162000CF93DF9380913D02882309F43FC00E944D
:101630002E0A80910201811103C0C5E0D0E002C0F2
:10164000C0E0D0E0CD5CDD4F45E050E0BE0184E479
:1016500092E00E94A43025E0FE01A4E4B2E00190F3
:101660000D922A95E1F70E94C70A892BD9F05D985F
:1016700080913E028F5F80933E02863058F18091C8
:101680000201811103C0E0E0F0E002C0E5E0F0E01B
:10169000ED5CFD4F80E090E0119201968530910560
:1016A000D9F718C05D9A10923E0214C00E94ED0A4C
:1016B00080910201811103C0A0E0B0E002C0A5E06A
:1016C000B0E0AD5CBD4F85E0E4E4F2E001900D9246
:1016D0008A95E1F70E941A0E81E0DF91CF9108957B
:1016E000E82FF0E0ED5CFD4F808108950895E8ED6E
:1016F000F0E08081806180838AE18A95F1F700C003
:101700008091D900817008950E94770B8093020127
:101710000E94770B882319F00E94950B02C00E944B
:101720009B0B789408950C94840B63E070E083E045
:1017300091E00C942B0663E070E083E091E00C9460
:1017400034060F931F93CF93DF938C0190911C016C
:1017500080911B01981761F082E090E00E940D07D4
:10176000EC01892B39F480911B0180931C0102C08C
:10177000C0E0D0E0012B49F480913F0290914002FB
:10178000892B19F480E090E002C081E090E00E9493
:101790000D07892B49F48091410280931B0110921F
:1017A000400210923F0206C081E090E09093400218
:1017B00080933F02CE01DF91CF911F910F91089549
:1017C00080911B0390911C03A0911D03B0911E03F7
:1017D00084309105A105B105D9F060F40097A10509
:1017E000B10599F082309105A105B105D9F469EAF6
:1017F00071E010C088309105A105B10581F08E30EF
:101800009105A105B10559F00DC06DE871E002C068
:101810006CE971E084EA93E00E94CA301CC066EB78
:1018200071E0F8CFBF93AF939F938F9384EC91E0D7
:101830009F938F931F9288E18F9384EA93E09F9305
:101840008F930E94D1308DB79EB70A960FB6F89449
:101850009EBF0FBE8DBF84EA93E008958DE191E0B5
:101860000895CF938C33910528F4FC01EA51FE4F83
:10187000C08101C0C0E21F92CF939F938F93FB0161
:1018800080811F928F9381811F928F9385ED91E0CC
:101890009F938F931F9288E18F9385E692E09F93A9
:1018A0008F930E94D1308DB79EB70E960FB6F894E5
:1018B0009EBF0FBE8DBF80914E0290914F02449704
:1018C00079F080914E0290914F02FC01E05BFD4F58
:1018D000C083019690934F0280934E02CF9108955A
:1018E00010924F0210924E02E0E5F2E080E292E0A8
:1018F000E436F90731F38193FACF85E692E0089553
:1019000080E592E008950F931F93CF93DF93EC014E
:101910008B010E94CC09882329F0B801CE010E94D6
:101920005E0D02C080E090E08170DF91CF911F9149
:101930000F91089508950C94EA0CCF93DF93EC0176
:101940000E94FE24BE0180E090E0DF91CF910C94D4
:101950006422CF92DF92EF92FF920F931F9301E0E8
:1019600010E020E030E06801790104C0CC0CDD1CFF
:10197000EE1CFF1C6A95D2F704C0000F111F221F36
:10198000331F8A95D2F70C291D292E293F298091D2
:101990001B0390911C03A0911D03B0911E03802393
:1019A0009123A223B323081719072A073B0749F4F9
:1019B000842F1F910F91FF90EF90DF90CF900C94A8
:1019C000C422842F1F910F91FF90EF90DF90CF9052
:1019D0000C94E5228091BE0386958F7390E09093DE
:1019E000BD038093BC030E94770B91E089270C9480
:1019F00008090C94B209CF93DF93EC0180913D026A
:101A00008823A1F00E94E00BBC01CE010E94440893
:101A10000E947D0CBC01CE010E9444080E94800CF3
:101A2000BC01CE01DF91CF910C9444080E942E0C92
:101A3000BC01CE01DF91CF910C9426080F931F9328
:101A4000CF93DF93EC018B0144E550E00E94A4307A
:101A5000892B59F084E5F801DE0101900D928A95F9
:101A6000E1F7CA5ADF4F81E08883DF91CF911F9160
:101A70000F910895CF93DF93CDB7DEB7C755D10946
:101A80000FB6F894DEBF0FBECDBFCE0101960E9407
:101A90008B08CE0101960E94FB0CBE016F5F7F4F49
:101AA0008DE493E00E941E0DC95ADF4F0FB6F894E3
:101AB000DEBF0FBECDBFDF91CF9108950F931F936F
:101AC000CF93DF938C01EB018A81882319F0C80141
:101AD0000E94310C013F8CE51807E1F040F4033C13
:101AE0008CE51807C9F1003F1C4559F059C0033F68
:101AF0008CE5180739F188F0053F1C4509F43FC013
:101B00004FC0CA81CC2309F44CC081E090E00E9410
:101B10009D0C0EC0CA8181E002C0CA8182E0CC2344
:101B200049F00E94C42243E062E081E00E94A90CD7
:101B3000C0E037C00E94E52243E062E081E00E94FD
:101B4000A90C2FC0CA8183E0CC2319F00E94C422C3
:101B5000EFCF0E94E52225C0CA81CC2311F18091EC
:101B6000BC030E944F160E943E168091BE038695CC
:101B70008F7390E09093BD038093BC03D9CFCA814B
:101B8000CC2371F00E94E4130E9452168091BE0390
:101B900086958F7390E09093BD038093BC0301C042
:101BA000C1E08C2FDF91CF911F910F91089581E0BB
:101BB00008951F93CF93DF9300D000D01F92CDB72D
:101BC000DEB749835A836B832091B50289819A815C
:101BD000211112C0662349F00E94B923182F682FE3
:101BE00089819A810E94622303C00E948D23182F4D
:101BF00069817A81812F04C00E94B92369817A8129
:101C00000F900F900F900F900F90DF91CF911F9139
:101C10000C949D10FC01408151816281738184810B
:101C20000C94D90D0E94EB24811102C00E946A25F8
:101C30000C949B0C0C94F3090C949A0C08950E943C
:101C4000771E0E941E0E2FEF84E39CE021508040FF
:101C50009040E1F700C0000087E797E79093010804
:101C6000809300080C948F260F931F93CF93DF93DC
:101C70008C010E940A0EEC01B8010E94830C88239B
:101C800009F451C2CC3C8CE5D80709F4E1C0E8F571
:101C9000C43CECE5DE0709F4A5C0F8F4C5318CE5D9
:101CA000D80778F4C2309CE5D90708F052C1C115B5
:101CB000ECE5DE0709F467C0C130DC4509F46BC010
:101CC00026C2C23C8CE5D80709F478C008F07EC073
:101CD000C631DC4509F4F4C11AC2F8018281C83C5E
:101CE000FCE5DF0709F49CC040F4C63CECE5DE07E8
:101CF00009F48AC008F482C08DC0CA3C9CE5D907AB
:101D000009F49AC008F492C09DC0C43DFCE5DF0709
:101D100009F4F8C0C0F4F8018281C03DFCE5DF079A
:101D200009F4BFC040F4CE3CECE5DE0709F49DC0E9
:101D300008F496C0A8C0C23D9CE5D90709F4CFC0FD
:101D400008F4BFC0DAC0C93DFCE5DF0709F49DC156
:101D500060F4C73D9CE5D90709F44DC108F06EC198
:101D6000C53DDC4509F4DEC0D2C1CD3D8CE5D807C8
:101D700009F4E6C0CE3D9CE5D907C1F0CC3DDC4579
:101D800009F0C5C1D6C0F8018281882309F4CBC10E
:101D90000E941F0EC8C1F8018281882309F4C3C1C3
:101DA00080913003816080933003BDC1F80182814E
:101DB000882309F4B8C10E946A25B5C1F80182815F
:101DC000882309F4B0C10E94B016ADC1F801828128
:101DD000882309F4A8C10E943A24827261F00E940B
:101DE0004C16A1C1F8018281882309F49CC10E948C
:101DF0003A248272A1F30E943E1695C1882309F409
:101E000092C10E9442158FC1882309F48CC10E949F
:101E1000651589C1882309F486C10E94851583C18F
:101E2000882309F480C10E94A5157DC1882309F487
:101E30007AC10E94C51577C1882309F474C10E9434
:101E4000E51571C1882309F46EC10E94FE136BC1B0
:101E5000F8018281882309F466C10E94131463C1CA
:101E6000882309F460C181E029C0882309F45BC19B
:101E70000E94F513823028F00E94F513853008F493
:101E8000BACF82E01BC0882309F44DC10E94F5132C
:101E9000863028F00E94F513883008F4ACCF86E035
:101EA0000DC0882309F43FC10E94F513893028F042
:101EB0000E94F5138E3008F49ECF89E00E944F16E1
:101EC00032C1882309F42FC10E94F5138F3028F006
:101ED0000E94F513843108F48ECF8FE0EFCF882372
:101EE00009F421C10E94F513853128F00E94F513F1
:101EF000873108F480CF85E1E1CF882309F413C14D
:101F000088E1DCCFF8018281882309F40CC10E94AA
:101F1000F513893128F00E94F513823208F46BCF53
:101F200089E1CCCFF8018281882309F4FCC083E2E7
:101F3000C5CFF8018281882309F4F5C080E006C08E
:101F4000F8018281882309F4EEC082E00E945528BE
:101F5000EAC0F8018281882309F4DEC00E94EB24E4
:101F6000811102C00E946A250E94032590E090938F
:101F7000190480931804FE01E350FC45E231F10599
:101F800030F4EA5AFF4F809118040C9491308091FC
:101F90001804816027C0826025C0846023C08061EE
:101FA00021C080621FC080641DC080681BC0846027
:101FB000886018C08E7F16C08D7F14C08B7F12C0C2
:101FC0008F7E10C08F7D0EC08F7B0CC08F770AC0B4
:101FD0008B7F877F07C087FB222720F991E092271C
:101FE00090FB87F980931804809118040E940725BC
:101FF0000E94771E98C0F8018281882351F01092C8
:1020000082020E94332690937F0280937E0282E0B8
:1020100022C08091820281110FC080917E02909136
:102020007F020E943F268436910530F486E20E94AA
:102030003E1B86E20E94011C82E024C0F8018281DE
:10204000882361F0109283020E94332690938102CC
:102050008093800280E20E942D1C65C080918302E3
:1020600081110FC080918002909181020E943F26D1
:102070008436910530F487E20E943E1B87E20E947D
:10208000011C80E20E94341C4EC0F8018281811143
:10209000D9CF809183028111F4CF809180029091F9
:1020A00081020E943F268436910558F780E20E9403
:1020B000341C88E20E943E1B88E20E94011C33C04F
:1020C0000E943A24982FF801828120916B0130916F
:1020D0006C01882379F09A7A81E009F480E080939A
:1020E0007D02911102C069E201C065E3C9010E944D
:1020F0009F250AC080917D02811102C069E201C062
:1021000065E3C9010E94A1250E9488240CC081E0DA
:102110008093820280938302C801DF91CF911F9147
:102120000F910C94D70D80E0DF91CF911F910F910B
:10213000089580E090E00895089526E4829FC0010C
:102140001124FC0127E0729FE00DF11D1124E60F20
:10215000F11DEE0FFF1FE053F94F85919491089503
:10216000880F991FFC01E851F84F859194910895CB
:10217000CF93DF930E949D100E947412EC01811591
:10218000904508F041C0C11580E4D80708F028C187
:10219000C83ED10510F5C03ED10508F0A1C1C83A2E
:1021A000D10578F4C53AD10508F0A2C0C130D105F7
:1021B00009F496C108F447C1C430D10508F090C1B4
:1021C00042C1CF3BD10508F49EC0C03CD10508F404
:1021D0003AC1CE01805C9109F5C0C11590E2D907E2
:1021E00058F4C11521E0D20708F07AC1C03FD105EB
:1021F00008F429C1D06574C1C11580E3D80708F07F
:10220000E5C0CE019F70DEC0C11595E5D90708F085
:1022100043C0C11524E5D20708F0F9C0C11582E515
:10222000D80708F5C11591E5D90708F0DCC0CE0143
:1022300074E0969587957A95E1F783709C2F93705B
:1022400021E030E002C0220F331F9A95E2F73C688C
:10225000382BCF70C695C69580E2C89FE001112447
:10226000C22BD32B3DC19E01237033278C2F869523
:102270008695C115D34508F0BBC0C1E0D0E002C0CF
:10228000CC0FDD1F2A95E2F720E2829FC0011124C6
:10229000C82BD92BDC6824C1C11529E5D207A0F4CD
:1022A000C11588E5D80708F0B7C0C11596E5D9076C
:1022B00008F0C9C08C2F0E94F0128F71C82FD0E097
:1022C000DC2FCC27D0620CC1C1152AE5D20708F457
:1022D000A8C0CE0190568115904208F0B4C08D2F51
:1022E0008F710E94F012DD27D0628F71D82BF8C059
:1022F000C53AD10509F4AAC0C63AD10509F0A9C06A
:10230000C2E8D0E4EDC0C83AD10509F4A5C0C93A85
:10231000D10509F4A4C0CA3AD10509F4A3C0CB3A47
:10232000D10509F4A2C0CC3AD10509F4A1C0CB3B38
:10233000D10509F4A0C0CC3BD10509F49FC0CD3A2A
:10234000D10509F49EC0C03BD10509F49DC0CE3A29
:10235000D10509F49CC0CF3AD10509F49BC0C13B1B
:10236000D10509F49AC0C23BD10509F499C0C33B19
:10237000D10509F498C0C43BD10509F497C0C53B09
:10238000D10509F496C0C63BD10509F495C0C73BF9
:10239000D10509F494C0C83BD10509F493C0C93BE9
:1023A000D10509F492C0CD3BD10509F491C0CE3BD3
:1023B000D10509F490C0CA3BD10509F48FC0C0E033
:1023C000D4E48EC00E94B010EC018AC0CE019927DF
:1023D000D3FF03C0EC01D86C83C0EC01D06C80C08B
:1023E000DF70D06A7DC0DC2FCC27C16FD06A78C087
:1023F000C1E0D0E002C0CC0FDD1F2A95E2F720E259
:10240000829FC0011124C82BD92BDA6869C0DC2F48
:10241000CC27C46FD06A64C0DC2FCC27C06FD06AD1
:102420005FC08C2F8F700E94F01294E0D695C795F4
:102430009A95E1F7CF70D0E0DC2FCC27D06A8F706F
:10244000806EC82B4DC0C0E0D0E04AC0C1E8D0E4E7
:1024500047C0C3E8D0E444C0C2EED4E441C0C9EEF2
:10246000D4E43EC0CAEED4E43BC0C5EBD4E438C0EB
:10247000C6EBD4E435C0C3EBD4E432C0C4EBD4E43F
:102480002FC0C7EBD4E42CC0CCECD4E429C0CDECF5
:10249000D4E426C0C3E8D5E423C0CAE8D5E420C00C
:1024A000C2E9D5E41DC0C4E9D5E41AC0C1E2D6E44E
:1024B00017C0C3E2D6E414C0C4E2D6E411C0C5E23A
:1024C000D6E40EC0C6E2D6E40BC0C7E2D6E408C02C
:1024D000CFE6D4E405C0C0E7D4E402C0CAE2D6E443
:1024E000CE01DF91CF9108958238910549F1B0F482
:1024F0008133910509F459C048F48932910509F4F2
:102500004FC08A32910509F455C00895853391056D
:1025100009F441C08933910599F00895833E9105EE
:1025200031F138F4803E910591F0823E9105A9F099
:102530000895863E910501F1873E910539F1089590
:102540002091180420FD3BC021FD39C008958091E1
:10255000180480FF34C089E341C08091180482FFD1
:1025600030C08091180484FD2EC083EE37C0809166
:10257000180482FD26C0F5CF8091180483FF25C082
:102580008091180484FD1FC087EE28C08091180434
:1025900083FD1BC0F5CF8091180485FD18C019C0BC
:1025A0008091180485FD15C012C08091180486FD25
:1025B00012C013C08091180486FD0FC00CC080EEBD
:1025C0000DC082EE0BC080E009C086EE07C089E234
:1025D00005C085E303C08AE201C081E390E008956D
:1025E0009091180492FF0DC0282F2871283019F4FB
:1025F000877F846006C0282F2471243011F48B7FDC
:10260000886093FF0DC0282F2871283119F4877E28
:10261000846106C0282F2471243111F48B7E8861D7
:1026200094FD877E0895CF92DF92EF92FF920F93F1
:102630001F93CF93DF93E901493708F048E76623FA
:1026400009F44EC0242F30E0EFEFF0E0E61BF10973
:10265000B901E69F8001E79F100DF69F100D112430
:10266000012F110F110B202F7B01E01AF10A3CE31F
:10267000C32ED12CB6010E946930FB01BC01E69E3D
:10268000C001E79E900DF69E900D1124B6010E94A8
:102690006930E230F105B1F040F4309779F03197CC
:1026A00011F5802F242F461B21C0E430F105A1F045
:1026B00068F03597C1F4842F861B18C0802F262F11
:1026C000200F14C0862F800FE42F03C0E42FE61BD9
:1026D000842F402F2E2F0AC0842F462F400F06C074
:1026E000842F242F03C080E020E040E0E42FF0E0BE
:1026F000EC5FF74F4491E22FF0E0EC5FF74F9491DD
:10270000E82FF0E0EC5FF74FE49149839883EA8388
:10271000DF91CF911F910F91FF90EF90DF90CF90BD
:1027200008958091BE03282F26952F7330E0211540
:10273000310519F48178826005C02532310524F015
:10274000817888648093BE033091BE03432F441F79
:102750004427441F2091BF03522F550F852F842BF0
:1027600027FB992790F9893641E094077CF068E6C9
:1027700071E00E947D3080FB37F93093BE0386956F
:102780002078822B90FB87F98093BF038091C1034F
:10279000893718F088E78093C103089588E090E0B6
:1027A0000C94A333CF92DF92EF92FF926B017C01E6
:1027B0000E949113B701A60188E090E0FF90EF908E
:1027C000DF90CF900C94C133EEEBF3E083E0808395
:1027D0001092BF038FEF828388E783831482608126
:1027E0007181828193810C94D2138091BE0380FF0A
:1027F00003C086958F73089580E008958091C20389
:1028000090E001968430910514F083E090E080938D
:10281000C2036091BE037091BF038091C003909189
:10282000C1030C94D2138091C20390E0019797FFEB
:1028300002C080E090E08430910514F083E090E0E5
:102840008093C2036091BE037091BF038091C00367
:102850009091C1030C94D2138091A10223E0829F36
:10286000C00111248D539C4F60915F0170E0209155
:10287000BE0320FD0AC0E3ECF3E011821082128255
:10288000339624E0E431F207C1F70C94F8199091E3
:10289000BE0390FF0CC0E3ECF3E0818360834283CE
:1028A000339694E0E431F907C1F70C942C140895A1
:1028B000CF93DF9300D01F92CDB7DEB72091BE0338
:1028C00020FF0AC09E012F5F3F4F0E9413134B81D0
:1028D00069818A810E9447140F900F900F90DF91B9
:1028E000CF9108955F926F927F928F929F92AF9255
:1028F000BF92CF92DF92EF92FF920F931F93CF93ED
:10290000DF9300D01F92CDB7DEB78C01E62EF42EF8
:10291000522E8091BE0380FF89C0982F9E779230FF
:1029200061F49E012F5F3F4FC8010E9413134B813A
:1029300069818A810E94471459C0E82FE695EF7398
:102940009EE39E0F9F73943018F4F090C1034EC025
:102950009AE39E0F9F73993068F4881F8827881F19
:102960009091BF03292F220F022F082B97FB1127CD
:1029700010F93CC087E28E0F8F738A30B8F5F0E013
:102980007997E0FD02C021E001C02FEFEE7FE65015
:10299000F84F859194916BE170E00E9469302603B5
:1029A0004001279F900C1124580188E9A81A8EEF46
:1029B000B80A83ECC82E83E0D82E98E6692E7724D7
:1029C0007394C501B3010E94693096014F2D6E2D9D
:1029D0000E941313A80CB91C83E0C80ED11C84E11B
:1029E000C81684E0D80669F70E942C148091BE03B3
:1029F00000FB87F98093BE03902F96958091BF03CB
:102A00008078892B10FB87F98093BF03E092C00385
:102A1000F092C103552051F06091BE037091BF0345
:102A20008091C0039091C1030E94D2130F900F9028
:102A30000F90DF91CF911F910F91FF90EF90DF905A
:102A4000CF90BF90AF909F908F907F906F905F904E
:102A50000895282FEEEBF3E03081331F3327331F27
:102A60004091BF03542F550F852F832B47FB992788
:102A700090F90A9668E671E00E947D304381628198
:102A80000C94721481E00C942915282F3091BE0308
:102A9000331F3327331F4091BF03542F550F852F0A
:102AA000832B47FB992790F98A3091051CF4825AB1
:102AB0009E4F05C00A9768E671E00E947D30409104
:102AC000C1036091C0030C94721481E00C9445150D
:102AD0006091C003262F30E02F3E310514F46F5E65
:102AE00001C06FEF3091BE03331F3327331F909126
:102AF000BF03592F550F97FB992790F9282F409125
:102B0000C103852F832B0C94721481E00C946815FB
:102B10006091C003262F30E02131310514F061515E
:102B200001C060E03091BE03331F3327331F909103
:102B3000BF03592F550F97FB992790F9282F4091E4
:102B4000C103852F832B0C94721481E00C9488159B
:102B50004091C103242F30E02836310514F44F5E34
:102B600001C048E73091BE03331F3327331F9091D4
:102B7000BF03592F550F97FB992790F9282F609184
:102B8000C003852F832B0C94721481E00C94A8153C
:102B90004091C103242F30E02131310514F041511F
:102BA00001C040E03091BE03331F3327331F9091A3
:102BB000BF03592F550F97FB992790F9282F609144
:102BC000C003852F832B0C94721481E00C94C815DC
:102BD00020E00C947214CF939091BE0390FF40C0FC
:102BE0009178811102C0926007C0853210F098641C
:102BF00003C08F73880F982B9093BE03662351F008
:102C00006091BE037091BF038091C0039091C10396
:102C10000E94D213C091BE036C2F66956F7370E053
:102C20004BE050E080E691E00E949730892B19F04C
:102C30001092A20203C081E08093A202CC1FCC2795
:102C4000CC1F9091BF03892F880F97FB992790F98C
:102C50004091C1036091C0038C2BCF910C94E81577
:102C6000CF910895682F9091BE0396959F7381E050
:102C7000890F853208F081E00C94EB1581E00C940B
:102C80003216682F9091BE0396959F738FEF890F30
:102C900009F484E20C94EB1581E00C94411661E098
:102CA0000C94EB15EEEBF3E08081816080838695D8
:102CB0008F730C944F1660E00C94EB158091A30277
:102CC000811135C0809130038160809330030E9470
:102CD000EB24811104C00E946A250E94E4130E9423
:102CE000CE136093BE037093BF038093C003909391
:102CF000C1036E7761F40E94E4130E94CE136093C7
:102D0000BE037093BF038093C0039093C1030E94DE
:102D1000911381E08093A2028091BE0380FF04C0E2
:102D200086958F730E945B1681E08093A3020895BD
:102D3000EEEBF3E080818E7F808360817181828100
:102D400093810E94D2131092A2022FEF80E792E0AB
:102D5000215080409040E1F700C000000C942C14FA
:102D60008091BE0380FD0C9498160C945216CF935C
:102D7000E82FF0E0EA50F84FC49180919F029091C3
:102D8000A0020E943F26EC2FF0E08E179F0708F468
:102D900043C00E9433269093A00280939F026091CB
:102DA0009E0270E080E090E00E946A2E20E030E019
:102DB0004FE753E40E948D2D2BED3FE049E450E4B2
:102DC0000E94932F0E9400300E94072E2BE43AE3CA
:102DD0004EE25FE30E94202D20EF3BEF48ED52E4EE
:102DE0000E94932F0E94392E462F8091BE03881F88
:102DF0008827881F9091BF03292F220F97FB9927BF
:102E000090F96091C003822B0E94581480919E0219
:102E100090E0019680939E02CF910895CF93E82F82
:102E2000F0E0ED50F84FC49180919C0290919D028A
:102E30000E943F26EC2FF0E08E179F07E8F00E94DB
:102E4000332690939D0280939C024091C103609130
:102E5000C00380919A0290919B020E945814809125
:102E60009A0290919B02019668E671E00E94693097
:102E700090939B0280939A02CF910895CF92DF9214
:102E8000FF920F931F93CF93DF93F82EE82FE695D1
:102E9000F0E0E051F84FC49180919802909199022E
:102EA0000E943F26EC2FF0E08E179F07C0F10E9492
:102EB0003326909399028093980203EC13E0C0E0CC
:102EC000D0E088E6C82EDD24D394809196029091BC
:102ED00097028C0F9D1FB6010E94693098014091A6
:102EE000C1036091C0030E9413132D960D5F1F4F05
:102EF000CF3581E0D80749F70E942C1480919602C3
:102F000090919702F0FE06C0019668E671E00E947B
:102F1000693001C001979093970280939602DF91E8
:102F2000CF911F910F91FF90DF90CF900895CF9296
:102F3000DF92EF92FF920F931F93CF93DF9380FF67
:102F400002C01FEF01C011E08695E82FF0E0E351C9
:102F5000F84FC49180919402909195020E943F266F
:102F6000EC2FF0E08E179F0708F45BC00E94332619
:102F7000909395028093940223ECE22E23E0F22EAC
:102F8000C0E0D0E0F70111821082128294E0C92ED5
:102F9000D12C00E080919302800F87FD855E082E82
:102FA000000C990BC817D907E9F48091C1038C9DD7
:102FB000A0018D9D500D1124559547955595479528
:102FC0008091BE03881F8827881F9091BF03592FC7
:102FD000550F97FB992790F997016091C003852BB6
:102FE0000E941313010FF1E0CF1AD10899F6219630
:102FF00083E0E80EF11CCB31D10521F60E942C14A0
:1030000080919302113031F4811102C08AE107C02E
:10301000815005C090E00196BE010E947D308093F2
:103020009302DF91CF911F910F91FF90EF90DF906E
:10303000CF9008950F931F93CF93DF93E82FF0E085
:10304000E651F84FC49180919102909192020E94B2
:103050003F26EC2FF0E08E179F0708F456C00E9421
:1030600033269093920280939102C3ECD3E0FE0149
:10307000118210821282339684E0E431F807C1F79E
:1030800000E010E080919002082E000C990B0817C8
:103090001907ECF080915E01082E000C990B801747
:1030A0009107ACF08091BE03881F8827881F9091FC
:1030B000BF03592F550F97FB992790F99E01409117
:1030C000C1036091C003852B0E94131303C01982B2
:1030D00018821A820F5F1F4F23960B31110591F64C
:1030E0000E942C1480915D0190919002980F909312
:1030F000900220915E01280F20935E01121614F4B5
:103100009A311CF0819580935D01DF91CF911F91E1
:103110000F910895EF92FF920F931F93CF93DF9338
:1031200080918E0290918F020E943F26883E9340AC
:10313000D0F10E94332690938F0280938E02C0912B
:103140008C02D0918D022196C170DD27D0938D0223
:10315000C0938C0283ECE82E83E0F82E10E008E7A1
:10316000812F8695FE01E80FF11DCF01817099270F
:1031700097014091C1036091C003FC010E9FC00103
:103180000F9F900D11240E9413131F5FF3E0EF0EA9
:10319000F11C1B3129F7DF91CF911F910F91FF9007
:1031A000EF900C942C14DF91CF911F910F91FF9011
:1031B000EF900895CF93DF9300D01F92CDB7DEB785
:1031C00080918A0290918B020E943F26E8EEF7E000
:1031D0002591349182179307C0F180918902811162
:1031E0000CC09E012F5F3F4F48E76FEF80E090E0FB
:1031F0000E9413138A81809389020E943326909340
:103200008B0280938A0280918802813051F028F0ED
:10321000823061F4409189020AC08091890240E0C5
:1032200007C06091890240E080E003C040E080E098
:1032300060E00E9447148091880290E0019663E06C
:1032400070E00E947D30809388020F900F900F9065
:10325000DF91CF9108950F931F93CF93DF938091C8
:103260008602909187020E943F26843F914008F495
:1032700048C00E9433269093870280938602C3EC55
:10328000D3E000E010E0209184023091850280912B
:10329000BE039091BF030D3011051CF4232B79F070
:1032A00002C0232B61F4881F8827881F592F550FD0
:1032B00097FB992790F99E014091C1030AC0881F8E
:1032C0008827881F592F550F97FB992790F99E0142
:1032D00040E06091C003852B0E9413130F5F1F4FC6
:1032E00023960B31110579F60E942C1480918402EB
:1032F0009091850201968170992790938502809321
:103300008402DF91CF911F910F9108958091A202C5
:103310008823D9F19091BE03892F86958F732EE370
:10332000280F2F73243018F482500C94B7162AE318
:10333000280F2F73233018F486500C940E1727E3B0
:10334000280F2F73263018F489500C943E1721E370
:10335000280F2F73263018F48F500C9497172BE2F8
:10336000280F2F73233018F485510C941A18892FC5
:103370008E77803311F40C948A18863411F40C94EF
:10338000DA18883411F40C942B1908952BB1342FCA
:10339000309523233BB1432B3FB7F894FC01680FD2
:1033A000791FE617F70789F0819198E04BB9000083
:1033B00000C087FF2BB9880F000000C000C000C00C
:1033C0002BB900C09A9591F7ECCF3FBF08952AB171
:1033D000242B2AB99B01220F331F620F731F0E94F7
:1033E000C61987EC90E00197F1F700C0000008953E
:1033F00048E00C94E7199093A9028093A8020895DD
:10340000E091A802F091A902309721F00190F0819B
:10341000E02D099480E00895E091A802F091A902BE
:10342000309721F00280F381E02D099408952091D6
:10343000A6023091A7022817390771F09093A702CE
:103440008093A602E091A802F091A902309721F0A2
:103450000680F781E02D099408952091A40230910F
:10346000A5022817390771F09093A5028093A40252
:10347000E091A802F091A902309721F00084F18533
:10348000E02D0994089585B7806885BF85B7806869
:1034900085BF089508950C944A1A0C944B1A0C9405
:1034A0004A1A0E94431A0E94930B0C944D1A81E011
:1034B00008950E942A260E94F5090E94A0260E94D3
:1034C0005E160C944F1ABF92CF92DF92EF92FF924A
:1034D0000F931F93CF93DF93CDB7DEB72A970FB625
:1034E000F894DEBF0FBECDBF0E94100B0E94571A8A
:1034F000811111C08FEF89838A831B820E9433263A
:103500008160782F9D838C8349815A816B818D8165
:103510000E940A1B54C08BEAC82E82E0D82E00E01D
:1035200010E0B02E802F0E94700BE82EF601219142
:103530006F01F82EF22631F40F5F1F4F0A3011058C
:1035400081F7D8CF8091300381FD0E94760B80E017
:1035500090E02F2D30E0482FB901082E02C075955C
:1035600067950A94E2F760FF25C08E83BF8281E0F1
:1035700090E06C0102C0CC0CDD1C4A95E2F72E2DC8
:1035800030E02C213D21232B09F480E088870E9424
:1035900033268160782F9A8789874E815F8168857D
:1035A0008A850E940A1BF801E555FD4F80818C2514
:1035B000808305C001968730910569F6BDCF0E94D2
:1035C000001A9091AA028917A9F00E94001A80930C
:1035D000AA022A960FB6F894DEBF0FBECDBFDF91C8
:1035E000CF911F910F91FF90EF90DF90CF90BF9000
:1035F0000C941C0E2A960FB6F894DEBF0FBECDBFFA
:10360000DF91CF911F910F91FF90EF90DF90CF90BE
:10361000BF900895CF93DF93CDB7DEB72B970FB64A
:10362000F894DEBF0FBECDBF4F83588769877A8776
:103630008B87DE01119686E0FD0111928A95E9F7EC
:1036400085E0FE01379601900D928A95E1F7498158
:103650005A816B817C818D819E810E9427212B96CE
:103660000FB6F894DEBF0FBECDBFDF91CF910895A6
:10367000FC01808191810E94FB230895882309F435
:10368000BFC0682F8CEF860F813A38F480916B01B0
:1036900090916C010E949F250CC080E2860F8830BB
:1036A00050F4677081E001C0880F6A95EAF70E94C4
:1036B0003D240C9488248BE5860F833070F4653AA2
:1036C00029F0663A31F083E890E005C081E890E0A7
:1036D00002C082E890E00C94171A88E5860F8731C3
:1036E00008F08EC0683A09F445C0693A09F445C04B
:1036F0006A3A09F445C06B3A09F445C06C3A09F4DA
:1037000045C06B3B09F445C06C3B09F445C06D3ABC
:1037100009F445C0603B09F445C06E3A09F445C060
:103720006F3A09F445C0613B09F445C0623B09F4B6
:1037300045C0633B09F445C0643B09F445C0653BA3
:1037400009F445C0663B09F445C0673B09F445C030
:10375000683B09F445C0693B09F445C06D3B09F479
:1037600045C06E3B09F445C06A3B09F445C080E0A2
:1037700090E044C082EE90E041C089EE90E03EC00F
:103780008AEE90E03BC085EB90E038C086EB90E09D
:1037900035C083EB90E032C084EB90E02FC087EB24
:1037A00090E02CC08CEC90E029C08DEC90E026C01D
:1037B00083E891E023C08AE891E020C082E991E0AB
:1037C0001DC084E991E01AC081E292E017C083E253
:1037D00092E014C084E292E011C085E292E00EC053
:1037E00086E292E00BC087E292E008C08FE690E0AC
:1037F00005C080E790E002C08AE292E00C942D1AA6
:103800000895882349F1682F8CEF860F813A38F4A8
:1038100080916B0190916C010E94A1250CC080E207
:10382000860F883050F4677081E001C0880F6A9578
:10383000EAF70E9443240C9488248BE5860F83309A
:1038400020F480E090E00C94171A685A673120F455
:1038500080E090E00C942D1A0895882321F00E94B6
:103860003D240C9488240895882321F00E94432449
:103870000C94882408958F929F92AF92BF92DF920A
:10388000EF92FF920F931F93CF93DF937C01D62F7C
:10389000C72FFC01158112951F70028101110E9432
:1038A0005A240E943324882379F0002369F080E2AF
:1038B0008D0F883048F082E00E94D2240E94332489
:1038C00091E0D82ED92601C0D12CBC2EB2948FE025
:1038D000B8228B2D90E0FC01E859FF4F0C949130F9
:1038E0008C2F807FCF70882311F0C295C07F00237A
:1038F00099F0CC2309F463C180E28D0F883010F079
:10390000D11104C08C2F0E943D2403C08C2F0E9433
:103910004D240E94882453C18D2F0E94011CCC236A
:1039200009F472C180E28D0F883010F0D11104C00B
:103930008C2F0E94432403C08C2F0E9453240E948A
:10394000882462C18C2F807FCF70803211F0C295A5
:10395000C07FDD2319F0D130C9F022C0002371F0FF
:10396000112341F0113031F40E946D248C2B0E9400
:1039700075244AC10E946D248C2B1DC0112319F09F
:10398000113009F441C10E947E241AC0002321F0A5
:10399000163008F039C10EC0153008F035C110C01E
:1039A000002361F0112331F0F701858180FF07C109
:1039B0008F7085838C2F0E942D1C26C1111110C180
:1039C0008C2FBCC08C2F837009F04CC0011125C115
:1039D0002D2F229526952770220F220F6D2F6F70A5
:1039E000862F90E0A0E0B0E04C015D01022E04C003
:1039F000880C991CAA1CBB1C0A94D2F7D4FF12C0D5
:103A00008FE090E0A0E0B0E004C0880F991FAA1FEB
:103A1000BB1F2A95D2F7BC01CD01609570958095AA
:103A2000909503C060E070E0CB01C695C695C37069
:103A3000C23051F080F4682979298A299B29C13044
:103A400071F00E947822E9C0682979298A299B2986
:103A50000E948A22E2C00E947822C501B4010E941D
:103A60006622DBC0002319F08C2F817001C086957F
:103A7000882309F4D2C02D2F229526952770220F76
:103A8000220F6D2F6F70862F90E0A0E0B0E04C0108
:103A90005D01022E04C0880C991CAA1CBB1C0A9450
:103AA000D2F7D4FF12C08FE090E0A0E0B0E004C0F5
:103AB000880F991FAA1FBB1F2A95D2F7BC01CD0101
:103AC000609570958095909503C060E070E0CB01A3
:103AD000C695C695C370C23051F080F46829792923
:103AE0008A299B29C13071F00E943D2396C0682924
:103AF00079298A299B290E944F238FC00E943D2348
:103B0000C501B4010E942B2388C08D2F90E0FC01D9
:103B1000E05EF109E531F10508F04DC0E858FF4FCE
:103B20000C949130DF708C2F8F71002321F00E9454
:103B3000C4228D2F40CF0E94E5228D2F0E94341C7D
:103B400063C0002341F0153008F05EC08C2F8F71E8
:103B50000E940A2359C0163008F056C0F7CF002340
:103B600039F08C2F8F710E94C4224EC00023C9F3FC
:103B70008C2F8F710E94E52247C0002329F08C2FE3
:103B80008F710E94AF2240C00E94AA223DC0002334
:103B900049F0CF718C2F0E94C42263E08C2F0E94C9
:103BA000BD2432C081E00E94D224123068F182E04C
:103BB0000E94D22429C0002331F0112391F28D2FCD
:103BC0000E943E1B21C0112399F2D93349F4FFEF23
:103BD00027EE83E0F15020408040E1F700C0000074
:103BE0008D2F0E94011C10C04C2F4F706D2FC701EC
:103BF0000E9499100E94D52114C04C2F4F706D2F38
:103C0000C7010E949C100DC098E0B91631F0B9169A
:103C100040F086EF8B0D823020F40E94001A0E9443
:103C20001C0EDD20E1F00E942F2480FD18C0F7015A
:103C300012820E9429240E94C422C7010E943B1EB6
:103C40000E942924DF91CF911F910F91FF90EF9057
:103C5000DF90BF90AF909F908F900C94E522DF9102
:103C6000CF911F910F91FF90EF90DF90BF90AF9099
:103C70009F908F9008950F931F93CF93DF93EC0144
:103C8000988189812B813C81232B31F08F3F31F446
:103C900081E09F3F19F403C081E001C080E080FD16
:103CA00013C0CE010E94340E882371F0688179819F
:103CB0008A810E9406248C010E9461230E94522264
:103CC000B801CE010E943B1CDF91CF911F910F9153
:103CD00008950E945A240E946A240C94882480919A
:103CE0006B0190916C010E94A3250C94691E0E94A7
:103CF0004A240C946F1EE92FE295EF704E2F50E08E
:103D0000FA013297EE30F105B0F4E357FF4F0C940F
:103D10009130803F91F018F4803E68F40EC0843FEB
:103D200051F40BC0803E48F0813F29F406C093FB5C
:103D3000882780F9089580E0089581E008950E9421
:103D4000FB230E947B1E0895CF93DF9300D000D009
:103D50001F92CDB7DEB70F900F900F900F900F907E
:103D6000DF91CF910895CF93DF9300D000D000D0A2
:103D7000CDB7DEB726960FB6F894DEBF0FBECDBF27
:103D8000DF91CF9108951F93CF93DF93C091B60237
:103D900016E08091B702C81799F0D0E01C9FF0019F
:103DA0001D9FF00D1124E854FD4F40815181628127
:103DB0007381848195810E94B31E2196C770E9CFDB
:103DC000DF91CF911F9108954091E8025091E9024F
:103DD0006091EA027091EB028091EC029091ED0209
:103DE0000C94B31ECF938091ED0282958F7009F0F1
:103DF0005FC08091EA02882309F45AC08091B6021C
:103E0000B091B7027091E802A091E9024091EB02F3
:103E10005091EC0291E07F3F09F090E0692FC6E0FD
:103E20008B1709F445C04115510521F0AF3F21F032
:103E300020E003C021E001C0262F90E020FD35C026
:103E4000C89FF001C99FF00D1124E854FD4F218156
:103E50002A132BC02081271328C02281211125C0BD
:103E6000238134812417350710F421503109241B94
:103E7000350B24363105C8F42091ED022F702061F6
:103E80002093ED0226E0289FF001299FF00D1124D8
:103E9000E354FD4F80818F708061808388EE92E0D3
:103EA0000E943B1ECF910C94C31E01968770B8CF21
:103EB000CF910895AF92BF92CF92DF92EF92FF928F
:103EC0000F931F93CF93DF93CDB7DEB761970FB6F4
:103ED000F894DEBF0FBECDBF7C0185E0F701DE01A7
:103EE0001D9601900D928A95E1F7D7014C9111969C
:103EF0005C91119712960C913091E8026091E90261
:103F00008091EB029091EC02009731F06F3F31F419
:103F100021E03F3F19F403C021E001C020E0B22FAF
:103F2000B170BB2E20FD40C1F701C380D480A090AA
:103F3000EA02AA2009F4F6C02091ED02C816D906BB
:103F400028F0D601A81BB90BCD0104C0809590952F
:103F50008C0D9D1D11E08436910580F010E0207FCE
:103F600009F0A6C07C2DD98AC88A602F89890E9451
:103F7000A41E88EE92E00E943B1E0EC1822F807F1D
:103F800009F053C0561314C0431312C0102F01116F
:103F90000FC02F7020612093ED020E94E41E88EE76
:103FA00092E00E943B1E8091ED02F70185833DC1A6
:103FB000CD2831F05F3F31F481E04F3F19F403C069
:103FC00081E001C080E080FD03C081E0802702C065
:103FD00080E090E0182F117080FF1CC08091B60225
:103FE0002091B70236E0821709F4FCC090E0389FB8
:103FF000F001399FF00D1124E854FD4F61815613F3
:1040000006C06081461303C06281061303C0019697
:104010008770E9CF102F002309F407C18091ED02CA
:1040200081608093ED0210E000C1561314C0431369
:1040300012C0011110C08091ED02F7018583C70104
:104040000E943B1E86E0F701A8EEB2E001900D92BF
:104050008A95E1F7C4C04D875E878D859E850E9455
:104060009F1E882379F1002369F12091ED02822FB0
:1040700082958F7090E0029774F08091E8029091A1
:10408000E90298878F831986DB86CA862C87CE0142
:1040900007960E943B1E86E0F701A8EEB2E0019071
:1040A0000D928A95E1F70E94F21E0E94E41E0DC057
:1040B000561769F04D875E878D859E850E949F1EED
:1040C000811119C0C7010E943B1E11E0AEC043130D
:1040D000F1CF0111EFCF8091ED02F7018583C70188
:1040E0000E943B1E86E0E8EEF2E0DF011D928A9519
:1040F000E9F71A2D9AC0002329F32091ED02822FAF
:1041000082958F7090E0029734F28091E80290914E
:10411000E9029A8389831B82DD82CC822E83CE01C1
:104120000196B7CFC816D90628F0F601E81BF90B9F
:10413000CF0104C0809590958C0D9D1D843691050E
:1041400048F010E07C2DD98AC88A602F89890E94A6
:10415000A41E22C0102F002309F4B4CF56130BC0A5
:10416000431309C086E0F701A8EEB2E001900D927A
:104170008A95E1F75AC04D875E878D859E850E949E
:104180009F1E811188CF8091ED0281608093ED02A6
:10419000C7010E943B1E49C0E8EEF2E086E0DF0165
:1041A0001D928A95E9F71BC0002309F48BCF4D8738
:1041B0005E878D859E850E949F1E182F882309F497
:1041C00081CF86E0F701A8EEB2E001900D928A95CA
:1041D000E1F788EE92E00E94381B0E94F21E0E94D6
:1041E000E41E23C04D875E878D859E850E94FB233C
:1041F000292F22952F70223028F49F7039F08111D9
:1042000005C00BC0243028F49F7049F4805E8830CC
:1042100020F0C7010E943B1EB12E1B2D06C0D70106
:1042200015969C91907F91F7F8CF812F61960FB6EC
:10423000F894DEBF0FBECDBFDF91CF911F910F91DC
:10424000FF90EF90DF90CF90BF90AF9008951F93B5
:10425000CF93DF93CDB7DEB72C970FB6F894DEBFC0
:104260000FBECDBF4F83588769877A878B879C871E
:10427000CE0107960E945A1F8823D1F09F8188851E
:104280002A853B85232B31F08F3F31F481E09F3F1E
:1042900019F403C081E001C080E080FD47C04F8178
:1042A000588569857A858B859C850E94B31E3EC0A2
:1042B00086E0FE013796DE01119601900D928A95F7
:1042C000E1F7FF81E8856A857B856115710531F02D
:1042D000EF3F31F481E0FF3F19F403C081E001C0FA
:1042E00080E080FD23C02091B70230E0C901019633
:1042F000877099274091B60250E084179507F1F135
:10430000F983EA837D836C8396E0929FD001939F2B
:10431000B00D1124A854BD4FFE01319601900D92AD
:104320009A95E1F78093B7020E94C31E16E0809130
:10433000B6029091B702891771F1189FC00111243C
:1043400088549D4F0E945A1F882329F1E091B6029C
:104350001E9FF0011124E854FD4F4081518162817C
:104360007381848195810E94B31E8091B60290E092
:104370000196877099278093B602D9CF0E94771E45
:104380001092B7021092B602E8EEF2E086E0DF018A
:104390001D928A95E9F72C960FB6F894DEBF0FBEF2
:1043A000CDBFDF91CF911F910895EF92FF920F93B0
:1043B0001F93CF93DF938C01892B09F46CC0F12CF0
:1043C000EE24E394E8012196F8018491843740F4C7
:1043D000843008F051C0813081F0823019F15BC027
:1043E000853709F444C0A8F19CE7980F903708F08E
:1043F00052C08F770E94011C41C00E5F1F4FFE010B
:10440000849190E2980F983050F48770FE2D01C08F
:10441000FF0F8A95EAF78F2F0E945D2414C00E9437
:104420003E1B2DC00E5F1F4FFE01849190E2980F3E
:10443000983060F48770FE2D01C0FF0F8A95EAF76F
:104440008F2F0E9463240E94882419C00E94011C9F
:1044500016C00E5F1F4FFE01C491CC2381F08FE97F
:104460009FE00197F1F700C00000C150F6CF0E5F4A
:104470001F4FFE01F49003C00E943E1B8E018F2D42
:10448000882309F49FCFEFE9FFE03197F1F700C0EF
:1044900000008150F5CFDF91CF911F910F91FF90D8
:1044A000EF900895089508950C9453220C9454228B
:1044B0000E94562260931F03709320038093210370
:1044C000909322030C94691E0C9458220F931F930F
:1044D00000911F03109120032091210330912203AA
:1044E000602B712B822B932B1F910F910C945822D0
:1044F0000F931F9300911F0310912003209121031C
:104500003091220360237123822393231F910F9103
:104510000C9458220F931F9300911F0310912003B6
:10452000209121033091220360277127822793274E
:104530001F910F910C9458220C9453220E949C229C
:1045400060931B0370931C0380931D0390931E03C1
:104550000C94691E60E070E0CB010C949E220F93D6
:104560001F9341E050E060E070E08A019B0104C0CD
:10457000000F111F221F331F8A95D2F7C901B801FE
:104580001F910F910C949E220F931F9341E050E0D6
:1045900060E070E004C0440F551F661F771F8A95C6
:1045A000D2F780911B0390911C03A0911D03B09141
:1045B0001E038A019B01082B192B2A2B3B2BC901B7
:1045C000B8011F910F910C949E220F931F9341E00D
:1045D00050E060E070E004C0440F551F661F771F75
:1045E0008A95D2F7409550956095709580911B0300
:1045F00090911C03A0911D03B0911E038A019B01A1
:10460000082319232A233B23C901B8011F910F91C5
:104610000C949E220F931F9341E050E060E070E005
:1046200004C0440F551F661F771F8A95D2F78091EB
:104630001B0390911C03A0911D03B0911E038A01DE
:104640009B01082719272A273B27C901B8011F9179
:104650000F910C949E220F931F9300911B031091B6
:104660001C0320911D0330911E03602B712B822BA4
:10467000932B1F910F910C949E220F931F930091E7
:104680001B0310911C0320911D0330911E03602316
:104690007123822393231F910F910C949E220F93D9
:1046A0001F9300911B0310911C0320911D03309157
:1046B0001E0360277127822793271F910F910C9467
:1046C0009E22089527E0929F800D1124E82FE69501
:1046D000E695E695877051E001C0550F8A95EAF797
:1046E00085E0E89FF0011124E251FD4F20E030E029
:1046F00070E04081CB01022E02C0969587950A9406
:10470000E2F78170819584278523842781932F5F29
:104710003F4F2530310569F7089527E0929F800DBE
:104720001124682F669566956695982F977085E099
:10473000689FB001112440E050E080E0FB01E40FED
:10474000F51FE251FD4F208130E0092E02C0369561
:1047500027950A94E2F721703327042E01C0220F17
:104760000A94EAF7822B4F5F5F4F4530510531F7CE
:104770000895BF92CF92DF92EF92FF920F931F9313
:10478000CF93DF938C01C0901B03D0901C03E0906B
:104790001D03F0901E0380911F0390912003A091B0
:1047A0002103B0912203C82AD92AEA2AFB2ACFE1A1
:1047B000D0E0D701C6010C2E04C0B695A7959795F9
:1047C00087950A94D2F780FD04C0219790F7B12C09
:1047D00007C0BC2EB8018C2F0E94B8100197A9F316
:1047E0008B2DDF91CF911F910F91FF90EF90DF9074
:1047F000CF90BF900895CF93DF93EC010E94B9232F
:10480000BE010E94B810DF91CF9108951F93CF93FE
:10481000DF93EB019091B502992321F0CB010E9427
:10482000FB2313C0882349F0CB010E94B923182F22
:10483000682FCE010E94622304C0CB010E948D2309
:10484000182FBE01812F0E94B810DF91CF911F91C8
:104850000895809123038595859585950895809188
:1048600023038770089590912303977081E009F4E2
:1048700080E0089580912F03089590912F03892B54
:1048800080932F030895809590912F03892380931F
:104890002F03089510922F03089590912E03892BD2
:1048A00080932E030895809590912E038923809301
:1048B0002E03089510922E03089590912D03892BB5
:1048C00080932D030895809590912D0389238093E3
:1048D0002D03089510922D030895809124030895C7
:1048E00008950C9470240C947124909124039817CB
:1048F00021F0809324030C94732408958091240361
:10490000882329F01092240380E00C9473240895E6
:10491000E0916B01F0916C0180912F038083E09115
:104920006B01F0916C01908180912E03892B808323
:10493000E0916B01F0916C01908180912D03892BA6
:10494000808380912403882381F0E0916B01F091B2
:104950006C019081892B808380916B0190916C0117
:104960000E946C2581110E947E2480916B019091A0
:104970006C010C940C1A0C94702498E0899F90019F
:104980001124262B209323030E94C4228091230309
:104990008595859585950C94BB241092230380E022
:1049A0000C94BB24209123038095822380932303BE
:1049B000982F977079F430E0482F082E000C550B93
:1049C0002417350739F08595859585950E94E52250
:1049D0000C94CD24089580E090E00E94A93321E05A
:1049E0008D3E9E4F09F020E0822F089582E090E0F6
:1049F0000C949B3383E090E00C949B33682F83E00E
:104A000090E00C94AF3384E090E00C949B33682FDB
:104A100084E090E00C94AF33AB01BC018FE090E0F8
:104A20000C94C133AB01BC0183E190E00C94C13321
:104A300060E070E0CB010C94122560E070E0CB01E7
:104A40000E940C250C9418256DEE7EEF80E090E01E
:104A50000E94CD3360E082E090E00E94AF3360E0DE
:104A600083E090E00E94AF3310921F031092200366
:104A7000109221031092220360E084E090E00E94F3
:104A8000AF3360E085E090E00E94AF3360E086E005
:104A900090E00E94AF336FEF87E090E00E94AF3369
:104AA00040E050E0BA0188E090E00E94C13360E04D
:104AB0008DE090E00E94AF3340E050E0BA0188E121
:104AC00090E00E94C13360E087E190E00E94AF3344
:104AD0000C941D250C942425FC01329697E080E06F
:104AE000915029F021912223D9F38F5FF9CF0895B6
:104AF0009C01FC0132969FEF80E04191461789F0BE
:104B00009F3F19F4411101C0982F8F5F8630A9F79C
:104B10009F3F39F0F901E90FF11D97FDFA95628386
:104B2000089508959C012A5F3F4FFC01428146137E
:104B300001C01282019682179307B9F708950C9469
:104B400078250C949225029626E0FC0111922A9574
:104B5000E9F7089508950C94AA250C94AA25CF93FB
:104B60000E94AD250E94100B0E94AB25C0E08C2F47
:104B70000E94700B811104C0CF5FCA30C1F701C021
:104B800081E0CF9108950C94AA250C94C3250E942E
:104B9000C52580911E04843049F11092310320E430
:104BA00088E190E00FB6F894A895809360000FBE5E
:104BB0002093600080E00E941C0E0E94C52583B7F0
:104BC000817F846083BF83B7816083BF7894889539
:104BD00083B78E7F83BF0FB6F894A895809160004D
:104BE000886180936000109260000FBE08950C945D
:104BF000AA250E94771E0E94001A0E941C0E0C9487
:104C0000F7251F920F920FB60F9211248F939F9347
:104C1000AF93BF9380913103811113C0809114042D
:104C200090911504A0911604B09117044196A11D0E
:104C3000B11D8093140490931504A0931604B093AF
:104C40001704BF91AF919F918F910F900FBE0F905E
:104C50001F90189582E084BD93E095BD9AEF97BDB3
:104C600080936E0008952FB7F8948091140490916A
:104C70001504A0911604B09117042FBF0895CF9288
:104C8000DF92EF92FF920F931F932FB7F89440910A
:104C900014045091150460911604709117042FBFED
:104CA0006A017B01EE24FF248C0120E030E0C01675
:104CB000D106E206F30610F4415051099A01281B6F
:104CC000390BC9011F910F91FF90EF90DF90CF90AA
:104CD000089578941F920F920FB60F9211248F931C
:104CE0009F93AF93BF938091140490911504A0916A
:104CF0001604B09117040196A11DB11D80931404F0
:104D000090931504A0931604B0931704BF91AF912C
:104D10009F918F910F900FBE0F901F90189587E76E
:104D200097E790930108809300089AE088E10FB616
:104D3000F894A895809360000FBE90936000FFCF19
:104D40000E94EB24811102C00E946A250E94F62471
:104D5000809330030E94032590E090931904809380
:104D600018040E94FA24682F70E080E090E00C9410
:104D7000642280913A03089508950895CF93DF93B4
:104D8000EC010E946528823011F0843039F581E011
:104D90008093E9008FEF9091E800815095FD06C067
:104DA00095ED9A95F1F700008111F5CF8091E8001B
:104DB00085FF14C040E050E068E070E0CE010E9442
:104DC00082288091E8008E778093E80088E0FE01D9
:104DD000A2E3B3E001900D928A95E1F7DF91CF91C4
:104DE0000895089580911D04811109C00E94132A1D
:104DF0000E94702A8091E20084608093E20008950E
:104E000010921D040895089508950C94F92542E028
:104E100061EC81E00C948C2980912004833009F4AA
:104E200060C030F4813071F0823009F499C0089587
:104E30008A3009F485C08B3009F46BC0893009F0E1
:104E4000A7C020C080911F04813A09F0A1C08091C1
:104E5000E800877F8093E8008091230490912404E8
:104E6000892B21F468E082E393E003C060E080E0F6
:104E700090E070E00E94CD288091E8008B778093CD
:104E8000E800089580911F04813209F081C080916B
:104E9000230490912404892B09F07AC08091E800C2
:104EA000877F8093E8008091E80082FD05C08091B3
:104EB0001E048111F8CF6CC02091F3008091F200A4
:104EC00090E0922B029729F48091F1008B7F813042
:104ED00021F48091F10080933A038091E8008B7770
:104EE00053C080911F04813A09F052C0809123047D
:104EF00090912404892B09F04BC08091E800877FB2
:104F00008093E8008091E80080FFFCCF80917701DA
:104F100036C080911F048132D9F58091230490918D
:104F20002404892BA9F58091E800877F8093E8000D
:104F30000E94C12980912104809377010C94771EEF
:104F400080911F04813221F58091E800877F809352
:104F5000E8000E94C1298091220480933B030895B8
:104F600080911F04813AA1F48091E800877F8093AB
:104F7000E8008091E80080FFFCCF80913B038093A4
:104F8000F1008091E8008E778093E8000C94C129AD
:104F9000089584B7877F84BF0FB6F894A895809151
:104FA0006000886180936000109260000FBE80E80E
:104FB00080936100109261000E94511A0E94132A8E
:104FC0000E94702A8091E20084608093E2007894CD
:104FD0000E94052D0E94591A8DE691E00E94FB194E
:104FE00080911E04853069F40E94C72580911C04BD
:104FF0008823B1F30E94AF25882391F30E946C2887
:10500000EFCF0E94631A0E948619EACF0C940828F9
:10501000292F332723303105C1F058F421303105D1
:1050200079F022303105C1F582E290E02EE239E0DC
:1050300037C02132310511F12232310531F12CC056
:1050400082E190E020E539E02BC09927813091057D
:1050500061F040F08230910559F00397E9F4E4E003
:10506000F9E008C0EAE2F9E005C0E8E1F9E002C0D1
:10507000EAE0F9E0849190E09F0112C0672B61F4AF
:1050800089E090E020E439E00BC0672B29F480E44C
:1050900090E022E639E004C080E090E020E030E0DB
:1050A000FA013183208308950895CF93C82F0E9479
:1050B0005428C0933C03CF91089580911E048430FE
:1050C00011F081E0089582E0089580913C03811100
:1050D00002C00C945D28089580E189BD82E189BDFC
:1050E00009B400FEFDCF8091D8008F7D8093D80059
:1050F0008091E00082608093E0008091E00081FD7B
:10510000FCCF0895CF92DF92EF92FF920F931F93FF
:10511000CF93DF93EC018B017A010E94E02981118A
:1051200033C0E114F10439F0F70180819181081B4B
:10513000190BC80FD91FC12CD12C0115110519F15C
:105140008091E80085FD16C08091E8008E778093FD
:10515000E800E114F10449F0F70180819181C80E63
:10516000D91ED182C08285E00FC00E94E029882329
:1051700021F30AC089918093F10001501109FFEFDA
:10518000CF1ADF0ADACF80E0DF91CF911F910F9124
:10519000FF90EF90DF90CF900895209125043091FB
:1051A00026042617370748F06115710539F4209158
:1051B000E8002E772093E80001C0B901FC0120E04F
:1051C0006115710579F180911E048823F1F1853014
:1051D000F1F18091E80083FD3CC08091E80082FD00
:1051E0002EC08091E80080FFEBCF2091F3008091EA
:1051F000F20090E0922B6115710551F08830910515
:1052000038F421912093F100615071090196F3CF98
:1052100021E0089709F020E08091E8008E778093E4
:10522000E800CECF2111CFCF0AC080911E04882381
:1052300061F0853061F08091E80083FD0AC08091C3
:10524000E80082FFF2CF80E0089582E0089583E0D5
:10525000089581E0089520912504309126042617B1
:10526000370748F06115710539F42091E8002E7771
:105270002093E80001C0B901FC0120E0611571052F
:1052800091F180911E04882309F440C0853009F40F
:105290003FC08091E80083FD3DC08091E80082FD21
:1052A0002FC08091E80080FFE9CF2091F30080912A
:1052B000F20090E0922B6115710559F0883091054C
:1052C00040F424912093F1003196615071090196C8
:1052D000F2CF21E0089709F020E08091E8008E7776
:1052E0008093E800CBCF2111CCCF0AC080911E045F
:1052F000882361F0853061F08091E80083FD0AC069
:105300008091E80082FFF2CF80E0089582E0089566
:1053100083E0089581E00895982F973068F5909381
:10532000E900981739F07091EC002091ED00509150
:10533000F00003C0242F762F50E021FD02C09F5FB4
:10534000ECCF3091EB003E7F3093EB003091ED00DD
:105350003D7F3093ED003091EB0031603093EB00F6
:105360007093EC002093ED005093F0002091EE003C
:1053700027FDE5CF80E008958F708093E90081E0FC
:10538000089580911F0487FF11C08091E80082FD7D
:1053900005C080911E048111F8CF11C08091E800F2
:1053A0008B770BC080911E04882349F08091E80020
:1053B00080FFF8CF8091E8008E778093E800089511
:1053C0002091E4003091E50095E64091EC00842FB7
:1053D000817040FF23C08091E80080FD1DC0809156
:1053E0001E04882399F0853099F08091EB0085FDAB
:1053F00011C04091E4005091E5002417350729F3CE
:10540000915011F09A01E1CF84E0089582E008956F
:1054100083E0089581E0089580E008954091E800D8
:1054200042FFDDCF08950E94812A0E94892AE0EE82
:10543000F0E0808181608083E8EDF0E080818F770B
:10544000808319BCA7EDB0E08C918E7F8C93808116
:105450008F7E808310921D0408950F931F93CF9326
:10546000DF930E94812A0E94892AC8EDD0E08881BA
:105470008F77888388818068888388818F7D8883FF
:1054800019BC10921E0410921A0410921C0410925F
:105490001B0400EE10E0F80180818B7F80838881FF
:1054A0008160888342E060E080E00E948C29E1EE28
:1054B000F0E080818E7F8083E2EEF0E08081816089
:1054C0008083808188608083F80180818E7F8083E3
:1054D000888180618883DF91CF911F910F9108951A
:1054E000E8EDF0E080818F7E8083E7EDF0E0808161
:1054F0008160808384E082BF81E080931D040C94EE
:105500002D2AE8EDF0E080818E7F80831092E2000A
:1055100008951092DA001092E10008951F920F9200
:105520000FB60F9211242F933F934F935F936F9376
:105530007F938F939F93AF93BF93EF93FF9380914C
:10554000E10082FF0BC08091E20082FF07C08091E2
:10555000E1008B7F8093E1000E94042D8091DA00AE
:1055600080FF1FC08091D80080FF1BC08091DA00AF
:105570008E7F8093DA008091D90080FF0DC080E19A
:1055800089BD82E189BD09B400FEFDCF81E0809331
:105590001E040E94F22605C019BC10921E040E942F
:1055A00000278091E10080FF19C08091E20080FF18
:1055B00015C08091E2008E7F8093E2008091E2002E
:1055C00080618093E2008091D80080628093D8004F
:1055D00019BC85E080931E040E9404278091E1009D
:1055E00084FF30C08091E20084FF2CC080E189BD3F
:1055F00082E189BD09B400FEFDCF8091D8008F7D86
:105600008093D8008091E1008F7E8093E1008091AB
:10561000E2008F7E8093E2008091E20081608093BF
:10562000E20080911A04882311F084E007C0809181
:10563000E30087FD02C081E001C083E080931E0487
:105640000E9405278091E10083FF29C08091E2003C
:1056500083FF25C08091E100877F8093E10082E095
:1056600080931E0410921A048091E1008E7F809333
:10567000E1008091E2008E7F8093E2008091E20061
:1056800080618093E20042E060E080E00E948C292B
:105690008091F00088608093F0000E940327FF91C2
:1056A000EF91BF91AF919F918F917F916F915F919A
:1056B0004F913F912F910F900FBE0F901F90189513
:1056C0001F920F920FB60F9211242F933F934F9377
:1056D0005F936F937F938F939F93AF93BF93CF937A
:1056E000DF93EF93FF93C091E900CF708091EC00BE
:1056F000D82FD17080FDD0E81092E9008091F000A1
:10570000877F8093F00078940E94A42B1092E90088
:105710008091F00088608093F000CD2BCF70C09313
:10572000E900FF91EF91DF91CF91BF91AF919F91F0
:105730008F917F916F915F914F913F912F910F903A
:105740000FBE0F901F9018951F93CF93DF93CDB787
:10575000DEB7AA970FB6F894DEBF0FBECDBFEFE15C
:10576000F4E08091F100819324E0E732F207C9F779
:105770000E940C278091E80083FF2EC180911F04B6
:1057800090912004492F50E04A30510508F024C17F
:10579000FA01E556FF4F0C949130803821F08238A1
:1057A00009F01AC108C080911B0490911C04992330
:1057B00089F082600FC0809123048F70873008F0D9
:1057C0000BC18093E9008091EB0085FB882780F96D
:1057D0001092E9009091E800977F9093E800809301
:1057E000F1001092F100D1C0282F2D7F09F0F4C0F4
:1057F000882319F0823061F0EFC08091210481305C
:1058000009F0EAC0933009F080E080931C042EC0B8
:105810008091210481112AC0809123048F702FEF81
:10582000280F263008F0D8C08093E9002091EB00C3
:1058300020FF1CC0933021F48091EB00806214C0E3
:105840009091EB0090619093EB0021E030E0A90192
:1058500002C0440F551F8A95E2F74093EA00109268
:10586000EA008091EB0088608093EB001092E900E1
:105870008091E800877F8093E8000E94C129ACC036
:105880008111AAC0109121041F778091E3008078D4
:10589000812B8093E3008091E800877F8093E8006C
:1058A0000E94C1298091E80080FFFCCF8091E30035
:1058B00080688093E300111102C082E001C083E0A0
:1058C00080931E0489C08058823008F085C0809182
:1058D0002104909122048C3D53E0950779F583E0F3
:1058E0008A838AE289834FB7F894DE01139620E019
:1058F0003EE051E2E32FF0E050935700E49120FFA7
:1059000003C0E295EF703F5FEF708E2F90E0EA30BA
:1059100010F0C79601C0C0968D939D932F5F2431E0
:1059200049F74FBF8091E800877F8093E8006AE2E3
:1059300070E0CE0101960E94CD2816C0609123042C
:1059400070912404AE014F5F5F4F0E940628BC0196
:10595000892B09F441C09091E800977F9093E8006B
:1059600089819A810E942B298091E8008B7780930E
:10597000E80032C0803881F58091E800877F80930D
:10598000E80080911A048093F1008091E8008E77FE
:1059900072CF811121C08091210490912204992716
:1059A0000297D4F48091E800877F8093E80080918B
:1059B000210480931A040E94C12980911A04811144
:1059C00006C08091E30087FD02C081E001C084E051
:1059D00080931E040E9407278091E80083FF0AC07D
:1059E0008091E800877F8093E8008091EB008062DF
:1059F0008093EB00AA960FB6F894DEBF0FBECDBF22
:105A0000DF91CF911F9108950895CF9380911E0447
:105A10008823A1F0C091E900CF709091EC00892F0C
:105A2000817090FD80E8C82B1092E9008091E80019
:105A300083FD0E94A42BCF70C093E900CF910895FD
:105A40005058BB27AA270E94382D0C94E32E0E94A1
:105A5000D52E38F00E94DC2E20F039F49F3F19F447
:105A600026F40C94AB2E0EF4E095E7FB0C94A52ED7
:105A7000E92F0E94F42E58F3BA17620773078407C0
:105A8000950720F079F4A6F50C94162F0EF4E09506
:105A90000B2EBA2FA02D0B01B90190010C01CA01E8
:105AA000A0011124FF27591B99F0593F50F4503E93
:105AB00068F11A16F040A22F232F342F4427585F85
:105AC000F3CF469537952795A795F0405395C9F79D
:105AD0007EF41F16BA0B620B730B840BBAF0915055
